:100000000C9450010C946D010C946D010C946D01D5
:100010000C946D010C946D010C946D010C946D01A8
:100020000C946D010C946D010C946D010C946F0196
:100030000C946D010C946D010C946D010C946D0188
:100040000C946D010C946D010C946D010C946D0178
:100050000C946D010C946D010C946D010C946D0168
:100060000C946D010C946D0111AE00A8011F2001CC
:10007000004000D30100A100C800DA010281017F25
:10008000A400A600D50180D901C2DB01208D011496
:100090002E00AF0011AE00D50180A8011FD30100D2
:1000A00040008D0114200100A100C800DA00028187
:1000B000018FD901C2DB0140A400A6002E00AF00D1
:1000C00000000000008181188181000700070014F2
:1000D0007F147F14242A7F2A12231308646236496E
:1000E0005522500005030000001C2241000041225F
:1000F0001C0014083E081408083E08080050300090
:1001000000080808080800606000002010080402C9
:100110003E5149453E00427F4000426151494621DF
:1001200041454B311814127F1027454545393C4A4B
:10013000494930017109050336494949360649499B
:10014000291E0036360000005636000008142241F1
:100150000014141414140041221408020151090659
:10016000324979413E7E1111117E7F494949363E1F
:10017000414141227F4141221C7F494949417F0938
:100180000909013E4149497A7F0808087F00417FFB
:1001900041002040413F017F081422417F40404000
:1001A000407F020C027F7F0408107F3E4141413EA8
:1001B0007F090909063E4151215E7F0919294646FA
:1001C0004949493101017F01013F4040403F1F2023
:1001D00040201F3F4038403F6314081463070870F5
:1001E00008076151494543007F414100020408105E
:1001F000200041417F000402010204404040404091
:10020000000102040020545454787F484444383894
:1002100044444420384444487F3854545418087E99
:100220000901020C5252523E7F0804047800447DBA
:1002300040002040443D007F1028440000417F40A2
:10024000007C041804787C0804047838444444385A
:100250007C14141408081414147C7C080404084842
:1002600054545420043F4440203C4040207C1C20F7
:1002700040201C3C4030403C44281028440C505046
:10028000503C4464544C44000836410000007F0058
:1002900000004136080010080810080000000000A7
:1002A00011241FBECFEFD8E0DEBFCDBF11E0A0E02C
:1002B000B1E0ECE0FBE002C005900D92A631B10781
:1002C000D9F723E0A6E1B1E001C01D92AC31B2073D
:1002D000E1F70E9435050C9484050C9400001F92F0
:1002E0001FB61F9211248F939F93AF93BF9380915A
:1002F000160190911701A0911801B0911901019672
:10030000A11DB11D8093160190931701A0931801B0
:10031000B0931901BF91AF919F918F911F901FBE14
:100320001F90189582E08093B800E9EBF0E080819F
:10033000908182708160892B808308958091B900BB
:1003400087758093B90084EA8093BC008091BC00DB
:1003500087FFFCCF8091B900887F883049F0809179
:10036000B900887F803121F08091B900887F08959D
:1003700080E00895880F8093BB0084E88093BC00E0
:100380008091BC0087FFFCCF8091B900887F8831C5
:1003900021F08091B900887F089580E008958093CE
:1003A000BB0084E88093BC008091BC0087FFFCCF39
:1003B0008091B900887F883221F08091B900887FD0
:1003C000089580E00895880F990B81608093BB00A9
:1003D00084E88093BC008091BC0087FFFCCF8091B3
:1003E000B900887F803421F08091B900887F08951A
:1003F00080E0089584E98093BC000895DF92EF9235
:10040000FF920F931F93CF93DF93D82FE8E6F0E08E
:10041000C4910E9492010E949E01882341F0DF91C5
:10042000CF911F910F91FF90EF90DF9008958D2F46
:100430000E94BA018111F3CFDD24DA94DC0ECC23C3
:1004400079F109E610E078018FEFE81AF80AF8016F
:10045000C49180E80E94CF018111E1CF8C2F0E94CE
:10046000CF018111DCCFF701E490E8012296EC0E78
:10047000FD2EF11C0DC0FE01149180E80E94CF01F9
:100480008111CDCF812F0E94CF0121968111C7CF3D
:100490008E01EC16FD0679F7DA94FFEFDF12D3CF69
:1004A0000E94FA0180E0BBCFCF93C82F0E949E012B
:1004B000882311F0CF9108958C2FCF910C94BA011D
:1004C000CF93C82F80E80E94CF01882311F0CF91ED
:1004D00008958C2FCF910C94CF01CF93DF93D82F19
:1004E0000E949E01C82F882321F08C2FDF91CF918D
:1004F00008958D2F0E94BA01C82F8111F6CF80E890
:100500000E94CF01C82F8111F0CF86EA0E94CF014F
:10051000C82F8111EACF0E94FA018C2FDF91CF9171
:100520000895CF93DF93D82F0E949E01C82F882370
:1005300021F08C2FDF91CF9108958D2F0E94BA0169
:10054000C82F8111F6CF80E80E94CF01C82F8111FA
:10055000F0CF87EA0E94CF01C82F8111EACF0E9415
:10056000FA018C2FDF91CF910895EF92FF920F93B4
:100570001F93CF93182F0E949E01C82F882339F014
:100580008C2FCF911F910F91FF90EF900895812FA5
:100590000E94BA01C82F8111F3CF80E40E94CF01DD
:1005A000C82F8111EDCF0AE111E08AE1E82E83E046
:1005B000F82EF80181918F010E94CF01C82F81117F
:1005C000DFCFE016F106A9F70E94FA01D9CFEAE1E0
:1005D000F1E080E092E0DF019C011D92215030406B
:1005E000E1F7089590E8699FB0011124860F972FD5
:1005F000911D90931B0380931A03089580911A0311
:1006000090911B039C01220F232F221F330B319546
:100610008A5F922F979599279795891B87FD02C02E
:1006200080E00895243068F42230D0F72F5F80E80E
:10063000289F9001112430931B0320931A0380E01C
:10064000089581E0089520911A0330911B03A901B8
:10065000440F452F441F550B519596E0920F642F80
:10066000679566276795961B97FD37C0082E000C87
:10067000990BFC01B097CF01880F991F880F991F24
:100680008E0F9F1FFC01E054FF4FE491D901A65E3D
:10069000BE4FEC93FC01EF53FF4FE4911196EC93A6
:1006A0001197FC01EE53FF4FE4911296EC931297D1
:1006B000FC01ED53FF4FE4911396EC9313978C5389
:1006C0009F4FFC01849114968C932A5F3F4F309387
:1006D0001B0320931A0380E00895443058F44230FD
:1006E00008F0C4CF4F5F342F3695242F279522274B
:1006F0002795BCCF81E00895CF93DF93EC018881EB
:10070000882309F45AC020911A0330911B032196C3
:1007100038C0082E000C990BFC01B097CF01880F50
:10072000991F880F991F8E0F9F1FFC01E054FF4FE8
:10073000E491D901A65EBE4FEC93FC01EF53FF4F4D
:10074000E4911196EC931197FC01EE53FF4FE49165
:100750001296EC931297FC01ED53FF4FE491139620
:10076000EC931397FC01EC53FF4FE4911496EC9338
:100770002A5F3F4F30931B0320931A0389918823EC
:10078000E1F0A901440F452F441F550B5195642FEB
:1007900067956627679596E0920F961B97FFB9CFEE
:1007A000443060F7423008F0B4CF4F5F342F3695B5
:1007B000242F279522272795ACCFDF91CF9108953D
:1007C000E82F87FD2AC0613240F5262F2695269511
:1007D000269530E0C9019695982F8827979587959B
:1007E000E80FF92FF11DCF01019690931B03809321
:1007F0001A03E65EFE4F220F331F220F331F220F14
:10080000331F621B21E030E001C0220F6A95EAF736
:100810008081822B808380E0089581E00895AF92EB
:10082000BF92CF92DF92EF92FF920F931F93CF93DD
:10083000DF93C62ED22E70E0A82FB0E08B010A1BEA
:100840001B0B30E0E42FF0E0E901CE1BDF0B51E0A1
:1008500017FF04C08D01061B170B5FEF91E0D7FF58
:1008600004C0EF01C21BD30B9FEFC017D1070CF0E0
:1008700085C0CC0FDD1F9E01201B310B87FD2EC0D4
:10088000413260F5642F669566956695A62EB12C6B
:100890007501F694FE2CEE24F794E794AE0DBF1D7F
:1008A0007D016FEFE61AF60AF0921B03E0921A033D
:1008B000A65EBE4FB501660F771F660F771F660FE6
:1008C000771FE61BF70B61E070E07B0102C0EE0CC6
:1008D000FF1CEA95E2F76C916E296C93C81609F437
:1008E00041C0000F111FE0901A03F0901B03AA24CF
:1008F000A394B12C850F37FD03C0490F201B310B8A
:100900002C0F3D1F87FD28C0413230F5A42FA6953E
:10091000A695A695B0E0FD01F695FE2FEE27F7957A
:10092000E795E80FF11D7F016FEFE61AF60AE65E24
:10093000FE4FAA0FBB1FAA0FBB1FAA0FBB1F742F0E
:100940007A1BA72FB50102C0660F771FAA95E2F7A1
:10095000DB01B081AB2BA083C812CCCFF0921B037C
:10096000E0921A0380E0DF91CF911F910F91FF90E9
:10097000EF90DF90CF90BF90AF900895000F111FC0
:10098000BE01601B710B87FD2EC0413260F5242F24
:10099000269526952695A22EB12C7501F694FE2C4F
:1009A000EE24F794E794AE0DBF1D7D012FEFE21A00
:1009B000F20AF0921B03E0921A03A65EBE4F950165
:1009C000220F331F220F331F220F331FE21BF30BA3
:1009D00021E030E0790102C0EE0CFF1CEA95E2F75D
:1009E0002C912E292C93D41609F4BCCF5E01AA0CAD
:1009F000BB1CE0901A03F0901B0321E030E0490F8C
:100A0000161617061CF0850F6A0D7B1D601B710BF7
:100A100087FD28C0413230F5A42FA695A695A6954E
:100A2000B0E0FD01F695FE2FEE27F795E795E80F6C
:100A3000F11D7F01CFEFEC1AFC0AE65EFE4FAA0F14
:100A4000BB1FAA0FBB1FAA0FBB1FD42FDA1BAD2FD2
:100A5000E90102C0CC0FDD1FAA95E2F7DE01B081EB
:100A6000AB2BA083D412CBCF79CF8CE30E94FE01B5
:100A70000E94E70260E080E00E94F20280E091E0E4
:100A80000E947C0361E087E00E94F20285E091E031
:100A90000E947C038CE30E94B5022FEF83ED90E36C
:100AA000215080409040E1F700C000008CE30E949C
:100AB00091022FEF83ED90E3215080409040E1F7C9
:100AC00000C000008CE30E946D02259A7894C0E279
:100AD00085B18C2785B92FEF89E698E121508040B8
:100AE0009040E1F700C000008CE30E9491022FEFDC
:100AF00089E698E1215080409040E1F700C0000075
:0C0B00008CE30E946D02E4CFF894FFCF5C
:100B0C00486F6C6100546520616D6F20706F6C6173
:060B1C00726369746100C0
:00000001FF
